{
  "_format": "hh3-artifact-1",
  "contractName": "AequoVault",
  "sourceName": "contracts/AequoVault.sol",
  "abi": [
    {
      "inputs": [
        {
          "internalType": "address",
          "name": "_aavePool",
          "type": "address"
        },
        {
          "internalType": "address",
          "name": "_asset",
          "type": "address"
        },
        {
          "internalType": "address",
          "name": "_aToken",
          "type": "address"
        }
      ],
      "stateMutability": "nonpayable",
      "type": "constructor"
    },
    {
      "inputs": [
        {
          "internalType": "string",
          "name": "message",
          "type": "string"
        },
        {
          "internalType": "address",
          "name": "assoAddress",
          "type": "address"
        }
      ],
      "name": "AssociationNotWhitelisted",
      "type": "error"
    },
    {
      "inputs": [
        {
          "internalType": "string",
          "name": "message",
          "type": "string"
        },
        {
          "internalType": "uint256",
          "name": "fees",
          "type": "uint256"
        },
        {
          "internalType": "uint256",
          "name": "maxFees",
          "type": "uint256"
        }
      ],
      "name": "FeesTooHigh",
      "type": "error"
    },
    {
      "inputs": [
        {
          "internalType": "string",
          "name": "message",
          "type": "string"
        },
        {
          "internalType": "uint256",
          "name": "fees",
          "type": "uint256"
        },
        {
          "internalType": "uint256",
          "name": "minFees",
          "type": "uint256"
        }
      ],
      "name": "FeesTooLow",
      "type": "error"
    },
    {
      "inputs": [
        {
          "internalType": "string",
          "name": "message",
          "type": "string"
        },
        {
          "internalType": "uint256",
          "name": "currentBalance",
          "type": "uint256"
        },
        {
          "internalType": "uint256",
          "name": "amount",
          "type": "uint256"
        }
      ],
      "name": "InsufficientBalance",
      "type": "error"
    },
    {
      "inputs": [
        {
          "internalType": "string",
          "name": "message",
          "type": "string"
        }
      ],
      "name": "InvalidAddress",
      "type": "error"
    },
    {
      "inputs": [
        {
          "internalType": "string",
          "name": "message",
          "type": "string"
        },
        {
          "internalType": "uint256",
          "name": "amount",
          "type": "uint256"
        }
      ],
      "name": "InvalidAmount",
      "type": "error"
    },
    {
      "inputs": [
        {
          "internalType": "string",
          "name": "message",
          "type": "string"
        }
      ],
      "name": "NoAssociationSet",
      "type": "error"
    },
    {
      "inputs": [],
      "name": "NoChange",
      "type": "error"
    },
    {
      "inputs": [],
      "name": "NoInterestToClaim",
      "type": "error"
    },
    {
      "inputs": [
        {
          "internalType": "address",
          "name": "owner",
          "type": "address"
        }
      ],
      "name": "OwnableInvalidOwner",
      "type": "error"
    },
    {
      "inputs": [
        {
          "internalType": "address",
          "name": "account",
          "type": "address"
        }
      ],
      "name": "OwnableUnauthorizedAccount",
      "type": "error"
    },
    {
      "inputs": [],
      "name": "ReentrancyGuardReentrantCall",
      "type": "error"
    },
    {
      "inputs": [
        {
          "internalType": "address",
          "name": "token",
          "type": "address"
        }
      ],
      "name": "SafeERC20FailedOperation",
      "type": "error"
    },
    {
      "inputs": [],
      "name": "WithdrawFailed",
      "type": "error"
    },
    {
      "anonymous": false,
      "inputs": [
        {
          "indexed": true,
          "internalType": "address",
          "name": "assoAddress",
          "type": "address"
        },
        {
          "indexed": false,
          "internalType": "bool",
          "name": "whitelisted",
          "type": "bool"
        }
      ],
      "name": "AssociationWhitelistUpdated",
      "type": "event"
    },
    {
      "anonymous": false,
      "inputs": [
        {
          "indexed": true,
          "internalType": "address",
          "name": "user",
          "type": "address"
        },
        {
          "indexed": false,
          "internalType": "uint256",
          "name": "amount",
          "type": "uint256"
        }
      ],
      "name": "Deposit",
      "type": "event"
    },
    {
      "anonymous": false,
      "inputs": [
        {
          "indexed": false,
          "internalType": "uint256",
          "name": "oldFees",
          "type": "uint256"
        },
        {
          "indexed": false,
          "internalType": "uint256",
          "name": "newFees",
          "type": "uint256"
        }
      ],
      "name": "FeesPercentageUpdated",
      "type": "event"
    },
    {
      "anonymous": false,
      "inputs": [
        {
          "indexed": true,
          "internalType": "address",
          "name": "user",
          "type": "address"
        },
        {
          "indexed": false,
          "internalType": "uint256",
          "name": "userShare",
          "type": "uint256"
        },
        {
          "indexed": true,
          "internalType": "address",
          "name": "association",
          "type": "address"
        },
        {
          "indexed": false,
          "internalType": "uint256",
          "name": "assoShare",
          "type": "uint256"
        }
      ],
      "name": "InterestClaimed",
      "type": "event"
    },
    {
      "anonymous": false,
      "inputs": [
        {
          "indexed": true,
          "internalType": "address",
          "name": "previousOwner",
          "type": "address"
        },
        {
          "indexed": true,
          "internalType": "address",
          "name": "newOwner",
          "type": "address"
        }
      ],
      "name": "OwnershipTransferred",
      "type": "event"
    },
    {
      "anonymous": false,
      "inputs": [
        {
          "indexed": true,
          "internalType": "address",
          "name": "user",
          "type": "address"
        },
        {
          "indexed": false,
          "internalType": "uint256",
          "name": "feesPercentage",
          "type": "uint256"
        }
      ],
      "name": "UserFeesPercentageUpdated",
      "type": "event"
    },
    {
      "anonymous": false,
      "inputs": [
        {
          "indexed": true,
          "internalType": "address",
          "name": "user",
          "type": "address"
        },
        {
          "indexed": true,
          "internalType": "address",
          "name": "assoAddress",
          "type": "address"
        }
      ],
      "name": "UserSetAssociatedAsso",
      "type": "event"
    },
    {
      "anonymous": false,
      "inputs": [
        {
          "indexed": true,
          "internalType": "address",
          "name": "user",
          "type": "address"
        },
        {
          "indexed": false,
          "internalType": "uint256",
          "name": "principal",
          "type": "uint256"
        },
        {
          "indexed": false,
          "internalType": "uint256",
          "name": "userInterest",
          "type": "uint256"
        },
        {
          "indexed": false,
          "internalType": "uint256",
          "name": "assoInterest",
          "type": "uint256"
        }
      ],
      "name": "Withdraw",
      "type": "event"
    },
    {
      "inputs": [],
      "name": "aToken",
      "outputs": [
        {
          "internalType": "contract IERC20",
          "name": "",
          "type": "address"
        }
      ],
      "stateMutability": "view",
      "type": "function"
    },
    {
      "inputs": [],
      "name": "aavePool",
      "outputs": [
        {
          "internalType": "contract IPool",
          "name": "",
          "type": "address"
        }
      ],
      "stateMutability": "view",
      "type": "function"
    },
    {
      "inputs": [],
      "name": "asset",
      "outputs": [
        {
          "internalType": "contract IERC20",
          "name": "",
          "type": "address"
        }
      ],
      "stateMutability": "view",
      "type": "function"
    },
    {
      "inputs": [
        {
          "internalType": "address",
          "name": "",
          "type": "address"
        }
      ],
      "name": "associationTotalReceived",
      "outputs": [
        {
          "internalType": "uint256",
          "name": "",
          "type": "uint256"
        }
      ],
      "stateMutability": "view",
      "type": "function"
    },
    {
      "inputs": [
        {
          "internalType": "address",
          "name": "user",
          "type": "address"
        }
      ],
      "name": "calculateInterest",
      "outputs": [
        {
          "internalType": "uint256",
          "name": "totalInterest",
          "type": "uint256"
        },
        {
          "internalType": "uint256",
          "name": "userShare",
          "type": "uint256"
        },
        {
          "internalType": "uint256",
          "name": "assoShare",
          "type": "uint256"
        }
      ],
      "stateMutability": "view",
      "type": "function"
    },
    {
      "inputs": [],
      "name": "claimInterest",
      "outputs": [],
      "stateMutability": "nonpayable",
      "type": "function"
    },
    {
      "inputs": [],
      "name": "defaultFeesPercentage",
      "outputs": [
        {
          "internalType": "uint256",
          "name": "",
          "type": "uint256"
        }
      ],
      "stateMutability": "view",
      "type": "function"
    },
    {
      "inputs": [
        {
          "internalType": "uint256",
          "name": "amount",
          "type": "uint256"
        }
      ],
      "name": "deposit",
      "outputs": [],
      "stateMutability": "nonpayable",
      "type": "function"
    },
    {
      "inputs": [
        {
          "internalType": "address",
          "name": "assoAddress",
          "type": "address"
        }
      ],
      "name": "getAssociationTotalReceived",
      "outputs": [
        {
          "internalType": "uint256",
          "name": "",
          "type": "uint256"
        }
      ],
      "stateMutability": "view",
      "type": "function"
    },
    {
      "inputs": [],
      "name": "getGlobalInterest",
      "outputs": [
        {
          "internalType": "uint256",
          "name": "",
          "type": "uint256"
        }
      ],
      "stateMutability": "view",
      "type": "function"
    },
    {
      "inputs": [],
      "name": "getTotalVaultValue",
      "outputs": [
        {
          "internalType": "uint256",
          "name": "",
          "type": "uint256"
        }
      ],
      "stateMutability": "view",
      "type": "function"
    },
    {
      "inputs": [
        {
          "internalType": "address",
          "name": "user",
          "type": "address"
        }
      ],
      "name": "getUserInfo",
      "outputs": [
        {
          "internalType": "uint256",
          "name": "depositedAmount",
          "type": "uint256"
        },
        {
          "internalType": "address",
          "name": "associatedAsso",
          "type": "address"
        },
        {
          "internalType": "uint256",
          "name": "pendingInterest",
          "type": "uint256"
        },
        {
          "internalType": "uint256",
          "name": "userInterestShare",
          "type": "uint256"
        },
        {
          "internalType": "uint256",
          "name": "assoInterestShare",
          "type": "uint256"
        },
        {
          "internalType": "uint256",
          "name": "feesPercentage",
          "type": "uint256"
        }
      ],
      "stateMutability": "view",
      "type": "function"
    },
    {
      "inputs": [],
      "name": "owner",
      "outputs": [
        {
          "internalType": "address",
          "name": "",
          "type": "address"
        }
      ],
      "stateMutability": "view",
      "type": "function"
    },
    {
      "inputs": [],
      "name": "renounceOwnership",
      "outputs": [],
      "stateMutability": "nonpayable",
      "type": "function"
    },
    {
      "inputs": [
        {
          "internalType": "address",
          "name": "assoAddress",
          "type": "address"
        }
      ],
      "name": "setAssociatedAssoWithUser",
      "outputs": [],
      "stateMutability": "nonpayable",
      "type": "function"
    },
    {
      "inputs": [
        {
          "internalType": "address",
          "name": "assoAddress",
          "type": "address"
        },
        {
          "internalType": "bool",
          "name": "whitelisted",
          "type": "bool"
        }
      ],
      "name": "setAssociationWhitelist",
      "outputs": [],
      "stateMutability": "nonpayable",
      "type": "function"
    },
    {
      "inputs": [
        {
          "internalType": "uint256",
          "name": "newFeesPercentage",
          "type": "uint256"
        }
      ],
      "name": "setDefaultFeesPercentage",
      "outputs": [],
      "stateMutability": "nonpayable",
      "type": "function"
    },
    {
      "inputs": [
        {
          "internalType": "uint256",
          "name": "feesPercentage",
          "type": "uint256"
        }
      ],
      "name": "setUserFeesPercentage",
      "outputs": [],
      "stateMutability": "nonpayable",
      "type": "function"
    },
    {
      "inputs": [],
      "name": "totalAssets",
      "outputs": [
        {
          "internalType": "uint256",
          "name": "",
          "type": "uint256"
        }
      ],
      "stateMutability": "view",
      "type": "function"
    },
    {
      "inputs": [
        {
          "internalType": "address",
          "name": "newOwner",
          "type": "address"
        }
      ],
      "name": "transferOwnership",
      "outputs": [],
      "stateMutability": "nonpayable",
      "type": "function"
    },
    {
      "inputs": [
        {
          "internalType": "address",
          "name": "",
          "type": "address"
        }
      ],
      "name": "vaultUserInfo",
      "outputs": [
        {
          "internalType": "uint256",
          "name": "depositedAmount",
          "type": "uint256"
        },
        {
          "internalType": "address",
          "name": "associatedAsso",
          "type": "address"
        },
        {
          "internalType": "uint256",
          "name": "feesPercentage",
          "type": "uint256"
        }
      ],
      "stateMutability": "view",
      "type": "function"
    },
    {
      "inputs": [
        {
          "internalType": "address",
          "name": "",
          "type": "address"
        }
      ],
      "name": "whitelistedAssociations",
      "outputs": [
        {
          "internalType": "bool",
          "name": "",
          "type": "bool"
        }
      ],
      "stateMutability": "view",
      "type": "function"
    },
    {
      "inputs": [
        {
          "internalType": "uint256",
          "name": "amount",
          "type": "uint256"
        }
      ],
      "name": "withdraw",
      "outputs": [],
      "stateMutability": "nonpayable",
      "type": "function"
    }
  ],
  "bytecode": "0x60e06040526107d0600355348015610015575f5ffd5b50604051611b27380380611b27833981016040819052610034916101f4565b338061005a57604051631e4fbdf760e01b81525f60048201526024015b60405180910390fd5b6100638161018a565b50600180556001600160a01b0383166100bf57604051630b0f5aa160e11b815260206004820181905260248201527f4161766520506f6f6c20616464726573732063616e6e6f74206265207a65726f6044820152606401610051565b6001600160a01b03821661011657604051630b0f5aa160e11b815260206004820152601c60248201527f417373657420616464726573732063616e6e6f74206265207a65726f000000006044820152606401610051565b6001600160a01b03811661016d57604051630b0f5aa160e11b815260206004820152601d60248201527f61546f6b656e20616464726573732063616e6e6f74206265207a65726f0000006044820152606401610051565b6001600160a01b0392831660805290821660a0521660c052610234565b5f80546001600160a01b038381166001600160a01b0319831681178455604051919092169283917f8be0079c531659141344cd1fd0a4f28419497f9722a3daafe3b4186f6b6457e09190a35050565b80516001600160a01b03811681146101ef575f5ffd5b919050565b5f5f5f60608486031215610206575f5ffd5b61020f846101d9565b925061021d602085016101d9565b915061022b604085016101d9565b90509250925092565b60805160a05160c0516118596102ce5f395f818161032801528181610b5d0152818161108b015261116e01525f81816101a6015281816105cd015281816106ad015281816107070152818161097701528181610a5001528181610a9001528181610df901528181610e2e0152610e8c01525f818161030101528181610604015281816109ae01528181610e500152610ec701526118595ff3fe608060405234801561000f575f5ffd5b5060043610610148575f3560e01c80637f443fa3116100bf578063b8c4176a11610079578063b8c4176a1461035d578063ba8a324214610370578063c8170370146103a2578063e11932cf146103aa578063ea36f011146103d8578063f2fde38b146103eb575f5ffd5b80637f443fa3146102a557806387ed4a76146102c45780638da5cb5b146102ec578063a03e4bc3146102fc578063a0c1f15e14610323578063b6b55f251461034a575f5ffd5b806338d52e0f1161011057806338d52e0f146101a157806352eca321146101e05780636386c1c7146101e8578063715018a6146102305780637478ee02146102385780637a00e7e11461024b575f5ffd5b806301e1d1141461014c5780630b9b5cce146101685780632e1a7d4d1461017157806330ea1a721461018657806335981fd814610199575b5f5ffd5b61015560025481565b6040519081526020015b60405180910390f35b61015560035481565b61018461017f3660046116cb565b6103fe565b005b6101846101943660046116cb565b6107b7565b610184610876565b6101c87f000000000000000000000000000000000000000000000000000000000000000081565b6040516001600160a01b03909116815260200161015f565b610155610b46565b6101fb6101f63660046116fd565b610bd3565b604080519687526001600160a01b039095166020870152938501929092526060840152608083015260a082015260c00161015f565b610184610c31565b6101846102463660046116cb565b610c42565b6102826102593660046116fd565b60046020525f908152604090208054600182015460029092015490916001600160a01b03169083565b604080519384526001600160a01b0390921660208401529082015260600161015f565b6101556102b33660046116fd565b60066020525f908152604090205481565b6101556102d23660046116fd565b6001600160a01b03165f9081526006602052604090205490565b5f546001600160a01b03166101c8565b6101c87f000000000000000000000000000000000000000000000000000000000000000081565b6101c87f000000000000000000000000000000000000000000000000000000000000000081565b6101846103583660046116cb565b610d7a565b61018461036b3660046116fd565b610f98565b61039261037e3660046116fd565b60056020525f908152604090205460ff1681565b604051901515815260200161015f565b61015561106a565b6103bd6103b83660046116fd565b61111a565b6040805193845260208401929092529082015260600161015f565b6101846103e636600461171d565b611276565b6101846103f93660046116fd565b61137c565b6104066113b6565b805f036104765760408051631533de4360e01b81526004810191909152602960448201527f576974686472617720616d6f756e74206d7573742062652067726561746572206064820152687468616e207a65726f60b81b60848201526024810182905260a4015b60405180910390fd5b335f90815260046020526040812080549091036104d957805460408051631533de4360e01b8152600481019190915260146044820152735573657220686173206e6f206465706f7369747360601b6064820152602481019190915260840161046d565b805482111561053c578054604051636664c8cf60e11b815260606004820152601e60648201527f496e73756666696369656e74206465706f73697465642062616c616e63650000608482015260248101919091526044810183905260a40161046d565b60018101546001600160a01b031661056757604051637be0acbf60e11b815260040161046d90611756565b5f5f5f6105733361111a565b919450925090505f61058584876117b0565b905085855f015f82825461059991906117c3565b925050819055508560025f8282546105b191906117c3565b9091555050604051631a4ca37b60e21b81526001600160a01b037f000000000000000000000000000000000000000000000000000000000000000081166004830152602482018390523060448301525f917f0000000000000000000000000000000000000000000000000000000000000000909116906369328dec906064016020604051808303815f875af115801561064c573d5f5f3e3d5ffd5b505050506040513d601f19601f8201168201806040525081019061067091906117d6565b90508181101561069357604051631d42c86760e21b815260040160405180910390fd5b5f61069e85896117b0565b90506106d46001600160a01b037f00000000000000000000000000000000000000000000000000000000000000001633836113e0565b5f841180156106ef575060018701546001600160a01b031615155b15610761576001870154610730906001600160a01b037f000000000000000000000000000000000000000000000000000000000000000081169116866113e0565b60018701546001600160a01b03165f908152600660205260408120805486929061075b9084906117b0565b90915550505b604080518981526020810187905290810185905233907f02f25270a4d87bea75db541cdfe559334a275b4a233520ed6c0a2429667cca949060600160405180910390a2505050505050506107b460018055565b50565b6107bf611444565b61138881111561083157604051630343e79f60e11b815260606004820152602760648201527f44656661756c7420666565732070657263656e746167652065786365656473206084820152666d6178696d756d60c81b60a482015260248101829052611388604482015260c40161046d565b600380549082905560408051828152602081018490527f6df4f0d0feb4d7b64455c14d718e3b1ae67d83b7f7175fed973b289de9c23525910160405180910390a15050565b61087e6113b6565b335f9081526004602052604081208054909103610903578054604051636664c8cf60e11b815260606004820152602b60648201527f4e6f206465706f73697465642062616c616e636520746f20636c61696d20696e60848201526a7465726573742066726f6d60a81b60a482015260248101919091526001604482015260c40161046d565b60018101546001600160a01b031661092e57604051637be0acbf60e11b815260040161046d90611756565b5f5f5f61093a3361111a565b925092509250825f036109605760405163aad5627b60e01b815260040160405180910390fd5b604051631a4ca37b60e21b81526001600160a01b037f000000000000000000000000000000000000000000000000000000000000000081166004830152602482018590523060448301525f917f0000000000000000000000000000000000000000000000000000000000000000909116906369328dec906064016020604051808303815f875af11580156109f6573d5f5f3e3d5ffd5b505050506040513d601f19601f82011682018060405250810190610a1a91906117d6565b905083811015610a3d57604051631d42c86760e21b815260040160405180910390fd5b8215610a7757610a776001600160a01b037f00000000000000000000000000000000000000000000000000000000000000001633856113e0565b8115610aea576001850154610ab9906001600160a01b037f000000000000000000000000000000000000000000000000000000000000000081169116846113e0565b60018501546001600160a01b03165f9081526006602052604081208054849290610ae49084906117b0565b90915550505b600185015460408051858152602081018590526001600160a01b039092169133917f4f5a4ef3d66078c989c175316b3f8ac55018fd57f251879a15ad2cd4265482c0910160405180910390a35050505050610b4460018055565b565b6040516370a0823160e01b81523060048201525f907f00000000000000000000000000000000000000000000000000000000000000006001600160a01b0316906370a0823190602401602060405180830381865afa158015610baa573d5f5f3e3d5ffd5b505050506040513d601f19601f82011682018060405250810190610bce91906117d6565b905090565b6001600160a01b038082165f908152600460205260408120805460018201549093169190819081908190610c068861111a565b60028401549297509095509350610c1f57600354610c25565b80600201545b91505091939550919395565b610c39611444565b610b445f611470565b611388811115610cb157604051630343e79f60e11b8152606060048201526024606482018190527f5573657220666565732070657263656e746167652065786365656473206d6178608483015263696d756d60e01b60a48301528101829052611388604482015260c40161046d565b8015801590610cc05750606481105b15610d29576040516375ae1ecb60e11b81526060600482015260226064828101919091527f5573657220666565732070657263656e746167652062656c6f77206d696e696d608483015261756d60f01b60a483015260248201839052604482015260c40161046d565b335f8181526004602052604090819020600201839055517fe3bc47c6390dd3561ac927ba3c03e6d4a89512c360c485a5a22c00258c53782d90610d6f9084815260200190565b60405180910390a250565b610d826113b6565b805f03610dec5760408051631533de4360e01b81526004810191909152602860448201527f4465706f73697420616d6f756e74206d7573742062652067726561746572207460648201526768616e207a65726f60c01b60848201526024810182905260a40161046d565b610e216001600160a01b037f0000000000000000000000000000000000000000000000000000000000000000163330846114bf565b610e756001600160a01b037f0000000000000000000000000000000000000000000000000000000000000000167f0000000000000000000000000000000000000000000000000000000000000000836114fe565b60405163617ba03760e01b81526001600160a01b037f000000000000000000000000000000000000000000000000000000000000000081166004830152602482018390523060448301525f60648301527f0000000000000000000000000000000000000000000000000000000000000000169063617ba037906084015f604051808303815f87803b158015610f08575f5ffd5b505af1158015610f1a573d5f5f3e3d5ffd5b5050335f9081526004602052604081208054859450909250610f3d9084906117b0565b925050819055508060025f828254610f5591906117b0565b909155505060405181815233907fe1fffcc4923d04b559f4d29a8bfc6cda04eb5b0d3c460751c2402c5c5cc9109c9060200160405180910390a26107b460018055565b6001600160a01b0381165f9081526005602052604090205460ff16611011576040805163211fe42560e01b81526004810191909152601e60448201527f4173736f63696174696f6e206973206e6f742077686974656c6973746564000060648201526001600160a01b038216602482015260840161046d565b335f8181526004602052604080822060010180546001600160a01b0319166001600160a01b03861690811790915590519092917f576c7d262e22f5d69e1e5ab472367766dfe183021850bba0670d1f4a9b2f576291a350565b6040516370a0823160e01b81523060048201525f9081906001600160a01b037f000000000000000000000000000000000000000000000000000000000000000016906370a0823190602401602060405180830381865afa1580156110d0573d5f5f3e3d5ffd5b505050506040513d601f19601f820116820180604052508101906110f491906117d6565b90506002548111156111135760025461110d90826117c3565b91505090565b5f91505090565b6001600160a01b0381165f90815260046020526040812080548291829115806111435750600254155b15611157575f5f5f9350935093505061126f565b6040516370a0823160e01b81523060048201525f907f00000000000000000000000000000000000000000000000000000000000000006001600160a01b0316906370a0823190602401602060405180830381865afa1580156111bb573d5f5f3e3d5ffd5b505050506040513d601f19601f820116820180604052508101906111df91906117d6565b905060025481116111fa575f5f5f945094509450505061126f565b5f6002548261120991906117c3565b905060025481845f015461121d91906117ed565b6112279190611804565b95505f5f84600201541161123d57600354611243565b83600201545b905061271061125282896117ed565b61125c9190611804565b945061126885886117c3565b9550505050505b9193909250565b61127e611444565b6001600160a01b0382166112e057604051630b0f5aa160e11b815260206004820152602260248201527f4173736f63696174696f6e20616464726573732063616e6e6f74206265207a65604482015261726f60f01b606482015260840161046d565b6001600160a01b0382165f9081526005602052604090205460ff1615158115150361131e5760405163a88ee57760e01b815260040160405180910390fd5b6001600160a01b0382165f81815260056020908152604091829020805460ff191685151590811790915591519182527fb27d235fa1da87676e8cdba2b540a218156ed8c52806018fed4f4decdc1abbcd910160405180910390a25050565b611384611444565b6001600160a01b0381166113ad57604051631e4fbdf760e01b81525f600482015260240161046d565b6107b481611470565b6002600154036113d957604051633ee5aeb560e01b815260040160405180910390fd5b6002600155565b6040516001600160a01b0383811660248301526044820183905261143f91859182169063a9059cbb906064015b604051602081830303815290604052915060e01b6020820180516001600160e01b038381831617835250505050611585565b505050565b5f546001600160a01b03163314610b445760405163118cdaa760e01b815233600482015260240161046d565b5f80546001600160a01b038381166001600160a01b0319831681178455604051919092169283917f8be0079c531659141344cd1fd0a4f28419497f9722a3daafe3b4186f6b6457e09190a35050565b6040516001600160a01b0384811660248301528381166044830152606482018390526114f89186918216906323b872dd9060840161140d565b50505050565b604051636eb1769f60e11b81523060048201526001600160a01b0383811660248301525f919085169063dd62ed3e90604401602060405180830381865afa15801561154b573d5f5f3e3d5ffd5b505050506040513d601f19601f8201168201806040525081019061156f91906117d6565b90506114f8848461158085856117b0565b6115f1565b5f5f60205f8451602086015f885af1806115a4576040513d5f823e3d81fd5b50505f513d915081156115bb5780600114156115c8565b6001600160a01b0384163b155b156114f857604051635274afe760e01b81526001600160a01b038516600482015260240161046d565b604080516001600160a01b038416602482015260448082018490528251808303909101815260649091019091526020810180516001600160e01b031663095ea7b360e01b1790526116428482611680565b6114f8576040516001600160a01b0384811660248301525f604483015261167691869182169063095ea7b39060640161140d565b6114f88482611585565b5f5f5f5f60205f8651602088015f8a5af192503d91505f5190508280156116bf575081156116b157806001146116bf565b5f866001600160a01b03163b115b93505050505b92915050565b5f602082840312156116db575f5ffd5b5035919050565b80356001600160a01b03811681146116f8575f5ffd5b919050565b5f6020828403121561170d575f5ffd5b611716826116e2565b9392505050565b5f5f6040838503121561172e575f5ffd5b611737836116e2565b91506020830135801515811461174b575f5ffd5b809150509250929050565b60208082526026908201527f4e6f206173736f636961746564206173736f63696174696f6e2073657420666f60408201526539103ab9b2b960d11b606082015260800190565b634e487b7160e01b5f52601160045260245ffd5b808201808211156116c5576116c561179c565b818103818111156116c5576116c561179c565b5f602082840312156117e6575f5ffd5b5051919050565b80820281158282048414176116c5576116c561179c565b5f8261181e57634e487b7160e01b5f52601260045260245ffd5b50049056fea26469706673582212205d9c28390b7fa382eb186d500b93fa5fa85043f9e1ecdd26efccc68cf55725bc64736f6c634300081c0033",
  "linkReferences": {},
  "deployedLinkReferences": {},
  "immutableReferences": {
    "2108": [
      {
        "length": 32,
        "start": 769
      },
      {
        "length": 32,
        "start": 1540
      },
      {
        "length": 32,
        "start": 2478
      },
      {
        "length": 32,
        "start": 3664
      },
      {
        "length": 32,
        "start": 3783
      }
    ],
    "2111": [
      {
        "length": 32,
        "start": 422
      },
      {
        "length": 32,
        "start": 1485
      },
      {
        "length": 32,
        "start": 1709
      },
      {
        "length": 32,
        "start": 1799
      },
      {
        "length": 32,
        "start": 2423
      },
      {
        "length": 32,
        "start": 2640
      },
      {
        "length": 32,
        "start": 2704
      },
      {
        "length": 32,
        "start": 3577
      },
      {
        "length": 32,
        "start": 3630
      },
      {
        "length": 32,
        "start": 3724
      }
    ],
    "2114": [
      {
        "length": 32,
        "start": 808
      },
      {
        "length": 32,
        "start": 2909
      },
      {
        "length": 32,
        "start": 4235
      },
      {
        "length": 32,
        "start": 4462
      }
    ]
  },
  "inputSourceName": "project/contracts/AequoVault.sol",
  "buildInfoId": "solc-0_8_28-908e6f3065ffb11fa4479307acd360e9fe2be6e5"
}